{
  "_format": "hh-sol-artifact-1",
  "contractName": "Hodler",
  "sourceName": "contracts/Hodler.sol",
  "abi": [
    {
      "inputs": [],
      "stateMutability": "nonpayable",
      "type": "constructor"
    },
    {
      "anonymous": false,
      "inputs": [
        {
          "indexed": false,
          "internalType": "address",
          "name": "accountAddress",
          "type": "address"
        },
        {
          "indexed": false,
          "internalType": "uint256",
          "name": "amountIn",
          "type": "uint256"
        },
        {
          "indexed": false,
          "internalType": "uint256",
          "name": "amountOut",
          "type": "uint256"
        }
      ],
      "name": "LogBuy",
      "type": "event"
    },
    {
      "anonymous": false,
      "inputs": [
        {
          "indexed": false,
          "internalType": "address",
          "name": "accountAddress",
          "type": "address"
        },
        {
          "indexed": false,
          "internalType": "uint256",
          "name": "amount",
          "type": "uint256"
        },
        {
          "indexed": false,
          "internalType": "uint256",
          "name": "nextUnlock",
          "type": "uint256"
        }
      ],
      "name": "LogDepositMade",
      "type": "event"
    },
    {
      "anonymous": false,
      "inputs": [
        {
          "indexed": false,
          "internalType": "address",
          "name": "accountAddress",
          "type": "address"
        },
        {
          "indexed": false,
          "internalType": "uint256",
          "name": "amount",
          "type": "uint256"
        }
      ],
      "name": "LogWithdrawalEth",
      "type": "event"
    },
    {
      "anonymous": false,
      "inputs": [
        {
          "indexed": false,
          "internalType": "address",
          "name": "accountAddress",
          "type": "address"
        },
        {
          "indexed": false,
          "internalType": "uint256",
          "name": "amount",
          "type": "uint256"
        }
      ],
      "name": "LogWithdrawalToken",
      "type": "event"
    },
    {
      "inputs": [
        {
          "internalType": "uint256",
          "name": "_amount",
          "type": "uint256"
        }
      ],
      "name": "buy",
      "outputs": [
        {
          "internalType": "uint256",
          "name": "",
          "type": "uint256"
        }
      ],
      "stateMutability": "nonpayable",
      "type": "function"
    },
    {
      "inputs": [
        {
          "internalType": "uint256",
          "name": "_lockSeconds",
          "type": "uint256"
        }
      ],
      "name": "deposit",
      "outputs": [],
      "stateMutability": "payable",
      "type": "function"
    },
    {
      "inputs": [
        {
          "internalType": "address",
          "name": "",
          "type": "address"
        }
      ],
      "name": "hodlerInfo",
      "outputs": [
        {
          "internalType": "uint256",
          "name": "balance",
          "type": "uint256"
        },
        {
          "internalType": "uint256",
          "name": "tokenBalance",
          "type": "uint256"
        },
        {
          "internalType": "uint256",
          "name": "nextUnlock",
          "type": "uint256"
        },
        {
          "internalType": "uint256",
          "name": "lastDeposit",
          "type": "uint256"
        }
      ],
      "stateMutability": "view",
      "type": "function"
    },
    {
      "inputs": [],
      "name": "maxLock",
      "outputs": [
        {
          "internalType": "uint256",
          "name": "",
          "type": "uint256"
        }
      ],
      "stateMutability": "view",
      "type": "function"
    },
    {
      "inputs": [],
      "name": "owner",
      "outputs": [
        {
          "internalType": "address",
          "name": "",
          "type": "address"
        }
      ],
      "stateMutability": "view",
      "type": "function"
    },
    {
      "inputs": [],
      "name": "targetToken",
      "outputs": [
        {
          "internalType": "contract IERC20",
          "name": "",
          "type": "address"
        }
      ],
      "stateMutability": "view",
      "type": "function"
    },
    {
      "inputs": [],
      "name": "uniswapRouter",
      "outputs": [
        {
          "internalType": "contract IUniswapRouter",
          "name": "",
          "type": "address"
        }
      ],
      "stateMutability": "view",
      "type": "function"
    },
    {
      "inputs": [],
      "name": "withdraw",
      "outputs": [],
      "stateMutability": "nonpayable",
      "type": "function"
    },
    {
      "inputs": [],
      "name": "withdrawToken",
      "outputs": [],
      "stateMutability": "nonpayable",
      "type": "function"
    }
  ],
  "bytecode": "0x6080604052600180546001600160a01b03191673f09f34ade2d66ea69372c828454873bfa9c0455617905534801561003657600080fd5b50600080546001600160a01b0319163317905561097b806100586000396000f3fe6080604052600436106100965760003560e01c80638da5cb5b11610069578063ca628c781161004e578063ca628c7814610197578063d96a094a146101ac578063f657cb5e146101cc57600080fd5b80638da5cb5b14610157578063b6b55f251461018457600080fd5b8063327107f71461009b5780633ccfd60b146100f25780636c0b3e4614610109578063735de9f71461012f575b600080fd5b3480156100a757600080fd5b506001546100c89073ffffffffffffffffffffffffffffffffffffffff1681565b60405173ffffffffffffffffffffffffffffffffffffffff90911681526020015b60405180910390f35b3480156100fe57600080fd5b50610107610230565b005b34801561011557600080fd5b506101216301e1338081565b6040519081526020016100e9565b34801561013b57600080fd5b506100c873e592427a0aece92de3edee1f18e0157c0586156481565b34801561016357600080fd5b506000546100c89073ffffffffffffffffffffffffffffffffffffffff1681565b6101076101923660046108b7565b610332565b3480156101a357600080fd5b50610107610435565b3480156101b857600080fd5b506101216101c73660046108b7565b6105ad565b3480156101d857600080fd5b506102106101e736600461085c565b600260208190526000918252604090912080546001820154928201546003909201549092919084565b6040805194855260208501939093529183015260608201526080016100e9565b33600090815260026020819052604090912001544210156102b2576040517f08c379a000000000000000000000000000000000000000000000000000000000815260206004820152601d60248201527f484f444c4552212043616e206e6f74207769746864726177207965742100000060448201526064015b60405180910390fd5b33600081815260026020526040808220805483825591519093919283156108fc02918491818181858888f193505050501580156102f3573d6000803e3d6000fd5b5060408051338152602081018390527fca93cfbb7a3f7e3671a311fd62aeb6828fda2c466f0d451c4838744fa9deb89991015b60405180910390a15050565b806301e133808111156103a1576040517f08c379a000000000000000000000000000000000000000000000000000000000815260206004820152601360248201527f4c6f636b2074616b6520746f6f206c6f6e67210000000000000000000000000060448201526064016102a9565b3360009081526002602081905260409091209081015442106103cd576103c783426108e7565b60028201555b348160000160008282546103e191906108e7565b909155505042600382015560028101546040805133815234602082015280820192909252517f878a8b64f941828f8f97d98bb30a6492017068e3b1c9228b9c4d9b079e8cc42e9181900360600190a1505050565b33600090815260026020819052604090912001544210156104b2576040517f08c379a000000000000000000000000000000000000000000000000000000000815260206004820152601d60248201527f484f444c4552212043616e206e6f74207769746864726177207965742100000060448201526064016102a9565b33600081815260026020526040808220600180820180549490555491517fa9059cbb0000000000000000000000000000000000000000000000000000000081526004810194909452602484018390529273ffffffffffffffffffffffffffffffffffffffff9091169063a9059cbb90604401602060405180830381600087803b15801561053e57600080fd5b505af1158015610552573d6000803e3d6000fd5b505050506040513d601f19601f820116820180604052508101906105769190610897565b5060408051338152602081018390527f31797fdbd14c169cb14691969cfd83ae26b039b71076a5a80bc099ccad7cee239101610326565b3360009081526002602052604081208054831115610627576040517f08c379a000000000000000000000000000000000000000000000000000000000815260206004820152601a60248201527f696e73756666696369656e7420616d6f756e7420746f2062757900000000000060448201526064016102a9565b8281600001600082825461063b91906108ff565b909155506000905061064e42600f6108e7565b60018054604080516101008101825273d0a1e359811322d97991e03f863a0c30c2cf029c80825273ffffffffffffffffffffffffffffffffffffffff909316602082018190526101f482840181905230606084018190526080840188905260a084018c905260c08401879052600060e0850181905294517f414bf389000000000000000000000000000000000000000000000000000000008152979850949691959094938b939192909190829073e592427a0aece92de3edee1f18e0157c058615649063414bf38990879061079e90869060040160006101008201905073ffffffffffffffffffffffffffffffffffffffff80845116835280602085015116602084015262ffffff60408501511660408401528060608501511660608401526080840151608084015260a084015160a084015260c084015160c08401528060e08501511660e08401525092915050565b6020604051808303818588803b1580156107b757600080fd5b505af11580156107cb573d6000803e3d6000fd5b50505050506040513d601f19601f820116820180604052508101906107f091906108cf565b9050808b600101600082825461080691906108e7565b909155505060408051338152602081018790529081018290527ffdc3511207b85adf52e88a10ecce8f8420f75147db52a28775b919765859abbf9060600160405180910390a19c9b505050505050505050505050565b60006020828403121561086d578081fd5b813573ffffffffffffffffffffffffffffffffffffffff81168114610890578182fd5b9392505050565b6000602082840312156108a8578081fd5b81518015158114610890578182fd5b6000602082840312156108c8578081fd5b5035919050565b6000602082840312156108e0578081fd5b5051919050565b600082198211156108fa576108fa610916565b500190565b60008282101561091157610911610916565b500390565b7f4e487b7100000000000000000000000000000000000000000000000000000000600052601160045260246000fdfea2646970667358221220119ab80b89027e2167091e23f23e8e412c0209fc9cada495588feee12c40e60664736f6c63430008040033",
  "linkReferences": {},
  "deployedLinkReferences": {}
}